:020000040800F2
:10000000680B0020AD010008E7250008A1240008C6
:10001000E5250008C10E0008B92B0008000000000B
:10002000000000000000000000000000EB250008B8
:10003000070F000800000000E9250008ED25000872
:10004000C7010008C7010008C7010008C701000870
:10005000C7010008C7010008C7010008C701000860
:10006000C7010008C7010008C7010008C701000850
:10007000C7010008C7010008C7010008C701000840
:10008000C50E0008D10E0008C7010008C70100080E
:10009000C7010008C7010008C7010008C701000820
:1000A000C7010008C7010008C7010008C701000810
:1000B00051260008C7010008C7010008C701000851
:1000C000C7010008C7010008C7010008C7010008F0
:1000D000C7010008A12B0008AD2B0008C7010008CC
:1000E000C7010008C7010008C701000800F002F8B6
:1000F00000F04DF80AA090E8000C82448344AAF175
:100100000107DA4501D100F042F8AFF2090EBAE872
:100110000F0013F0010F18BFFB1A43F0010318473B
:10012000082C0000282C0000103A24BF78C878C1A1
:10013000FAD8520724BF30C830C144BF04680C60ED
:10014000704700000023002400250026103A28BF35
:1001500078C1FBD8520728BF30C148BF0B60704739
:10016000642900F0AD80782900F0E680632900F072
:100170002282002070471FB59DE8030000F092FC2A
:1001800000F086FA1FBD10B500F0EBFA10BD00F0CC
:100190004EFB1146FFF7EFFF02F02CFD00F052FC82
:1001A00003B4FFF7F0FF03BC00F0EEFD0948804701
:1001B00009480047FEE7FEE7FEE7FEE7FEE7FEE749
:1001C000FEE7FEE7FEE7FEE704480549054A064B61
:1001D000704700004F260008ED0000086805002069
:1001E000680B002068070020680700200FB404494E
:1001F00010B503AA029800F0EBF910BC5DF814FBEF
:100200005C0400202DE9F0410E46044600202062E7
:100210002046E168884730B3252805D0D4E901217C
:100220009047206A401CF2E7E16820460027884793
:10023000050018D0A5F14100192802D820354FF447
:1002400000673246294620462760FFF789FF40B104
:10025000012804D0F61D26F007060836D8E7361D1B
:10026000D6E72846DAE7206ABDE8F08170B50C468B
:100270000546012A05D02878800600D5EA690023C2
:1002800002E0012305E05B1C934202D2E05C0028FF
:10029000F9D1A869E618C01AA861286A184428622A
:1002A0002846AFF3008004E0D5E9012114F8010BE2
:1002B0009047B442F8D32846AFF3008070BD0000E9
:1002C0002DE9F0410646002410687529314616A52F
:1002D00010D0AFF30080002802DA404213A507E0F7
:1002E00031688A0701D512A502E0490704D511A596
:1002F000012401E0AFF3008000210A2206F1240767
:1003000009E0B0FBF2FCB0FBF2F302FB1C00303062
:1003100078541846491C0028F3D123462A46304613
:10032000BDE8F04100F0E4B8000000002D0000003E
:100330002B0000002000000070B504460D46214649
:100340001068AFF300802188090502D50F4A7A446E
:1003500002E00E4A7A440E32002104F1240305E043
:1003600000F00F060009965D5E54491C0028F7D185
:1003700020780023000704D5702D02D009B1022394
:1003800011322046BDE8704000F0B2B8A02900004C
:1003900010B5431C02E010F8011B71B18107FAD1BE
:1003A0004FF0013202C88C1A8C4314EAC211F9D002
:1003B000C01A0A0603D0C01E10BDC01A10BD0A0420
:1003C00001D0801E10BD0902FCD0401E10BD032AC2
:1003D00040F2308010F0030C00F0158011F8013B62
:1003E000BCF1020F624498BF11F801CB00F8013B49
:1003F00038BF11F8013BA2F1040298BF00F801CB0D
:1004000038BF00F8013B11F0030300F0F380083A15
:10041000C0F0088051F8043B083A51F804CBA0E83A
:100420000810F5E7121D5CBF51F8043B40F8043B8F
:10043000AFF30080D20724BF11F8013B11F801CBC4
:1004400048BF11F8012B24BF00F8013B00F801CB95
:1004500048BF00F8012B70474FF000020429C0F09C
:10046000128010F0030C00F01B80CCF1040CBCF1E6
:10047000020F18BF00F8012BA8BF20F8022BA1EB38
:100480000C0100F00DB85FEAC17C24BF00F8012B1D
:1004900000F8012B48BF00F8012B70474FF0000215
:1004A00000B5134694469646203922BFA0E80C506A
:1004B000A0E80C50B1F12001BFF4F7AF090728BF45
:1004C000A0E80C5048BF0CC05DF804EB890028BFC1
:1004D00040F8042B08BF704748BF20F8022B11F0EA
:1004E000804F18BF00F8012B704770477047704766
:1004F0002DE9F0470D4699469246044600F124083E
:100500000168880604D5E06921F01001216000E04F
:100510000120A84201DD471B00E00027A1697A19EC
:1005200002EB0900081AA0612078C00602D4204618
:10053000AFF30080002608E0D4E901211AF8060094
:100540009047206A401C761C20624E45F4DB2078E0
:10055000C0060AD52046AFF3008006E0D4E90121A9
:1005600030209047206A401C2062381EA7F1010706
:10057000F4DC07E0D4E9012118F805009047206A6F
:10058000401C2062281EA5F10105F3DC2046AFF3D4
:1005900000802078000602D50220BDE8F087012007
:1005A000FBE710B5436913B1AFF3008001E0FFF73B
:1005B0005DFE012010BD127800F124010A700022B6
:1005C0004A700122EDE711684FF0FF32E9E70000C1
:1005D000074B70B50D467B4400F043F804462846AF
:1005E00000F052F810B14FF0FF3070BD204670BDE2
:1005F0000326000010B5203AC0F00B80B1E8185077
:10060000203AA0E81850B1E81850A0E81850BFF4FC
:10061000F5AF5FEA027C24BFB1E81850A0E818509B
:1006200044BF18C918C0BDE810405FEA827C24BFEF
:1006300051F8043B40F8043B08BF7047D20728BF7D
:1006400031F8023B48BF11F8012B28BF20F8023BCC
:1006500048BF00F8012B704701694A1C0261087805
:10066000704700B58FB0CDE90131002105910549F2
:100670007944CDE9031011466846FFF7C3FD0FB07A
:1006800000BD0000E5FFFFFF007B00F08000704729
:1006900010B542485421FFF701FF41485421FFF7AC
:1006A000FDFE40485421FFF7F9FE3F493B483C4AD4
:1006B0003F4B08603D490A603A491960531C036585
:1006C000481C1065012008653B48344A39A178442C
:1006D00000F01CF920B9384878440A3800F0B8F91D
:1006E00037482F4A35A1784400F010F920B9344832
:1006F00078440A3800F0ACF932482A4A2FA17844ED
:1007000000F004F920B92F4878440A3800F0A0F925
:1007100040232248DC000021224600F0D4F820B11A
:1007200025487844543800F093F91D482246402368
:10073000002100F0C8F820B121487844543800F076
:1007400087F9184822461023002100F0BCF8002841
:1007500006D01C487844BDE81040563800F078B9FF
:1007600010BD104870B5006D20F001040B4800F07A
:1007700043F90B4800F040F90A4800F03DF909E060
:10078000206D20F00105204600F036F9204600F0EB
:1007900073F82C46002CF3D170BD00000804002033
:1007A0005C040020B0040020240000202800002069
:1007B0002C00002072000000482600007700000096
:1007C00034260000202600000EB5CDE90001FFF719
:1007D000DFFD029069460120ABBE0EBD08B569463B
:1007E00000900220ABBE08BD1FB58DE8070069462A
:1007F0000520ABBE04B010BD1FB58DE80F006946E3
:100800000620ABBEF6E708B5694600900920ABBEEE
:1008100008BD1CB5CDE9000169460A20ABBE1CBD70
:10082000704708B5694600900C20ABBE08BD754600
:1008300000F016F9AE4605006946534620F0070061
:10084000854618B020B5FFF7BFFCBDE820404FF04B
:1008500000064FF000074FF000084FF0000B21F0AA
:100860000701AC46ACE8C009ACE8C009ACE8C00977
:10087000ACE8C0098D46704770B50446051F00F00E
:10088000F5F80068002C14BF446870BD002C18BF38
:10089000AC423CBF20466468F8D301680A18AA42FB
:1008A00018BF456003D12A680546114401602868D5
:1008B0004119A1421CBF6C6070BD6168696021680C
:1008C0000844286070BD70B5C468A50713D06502E0
:1008D00011D4B2F5807F09D0B2F5007F06D0B2F511
:1008E000806F08D1012300F1240106E05D1E6FF046
:1008F0007F46B54201D3012070BD0161C3614160F3
:1009000024F470611143C160002070BD2DE9F041F5
:100910000C4607461646104600F06EF82078611C1B
:1009200061280AD0722802D077283CD102E0012544
:10093000002405E00225042402E0082448F2020510
:1009400011F8010B2B2806D0622809D011F8010CF0
:1009500074280AD00BE045F0030544F00204EFE7E9
:1009600045F0040544F00104EAE744F01004384679
:100970002146FFF729FF411C15D00021316171602C
:100980004FF40071F560F1617061200704D53046C5
:100990000222002100F0E4F8306D40F001003065E3
:1009A0003046BDE8F0810020FBE72DE9F0410D461F
:1009B0000646104C206DC10704D0410804D020F039
:1009C0000104F7E722460EE0542000F09AF80700F1
:1009D0000ED0206D47F001010843542120653846B0
:1009E000FFF75CFD3A4629463046BDE8F0418DE709
:1009F0000020D6E7080400202DE9F04704464FF018
:100A000000094FF0FF37C568D4E90486A80707D06E
:100A1000204600F055F93046FFF7E0FE002802DAE4
:100A20003846BDE8F087280502D54046FFF724FF89
:100A30004C212046FFF732FD206D20F0010020659B
:100A40004846EEE70446AFF300802046FFF7A8FBD8
:100A500010B500F07FF9BDE8104000F075B9000056
:100A600000487047040500207047000000487047A8
:100A70000C050020704770477047704738B5044632
:100A80000A4600206946AFF30080002808BF38BD41
:100A900002460099204600F084F9012038BD01206B
:100AA00000F0D3B9F8B5AFF30080054600200C463E
:100AB000102000BF0646A819A0420DD9324669464B
:100AC0000020AFF30080070008BF00F0BEF90098D7
:100AD000A04218BF0546C419FFF7C8FF05600746C6
:100AE000F01D20F007004619284600F053F9B442E3
:100AF00008BFF8BDA21B31463868BDE8F84000F0D9
:100B000050B970B50646FFF7B1FF056806F10B0056
:100B100020F00704B4429CBF002070BD2B466A68D9
:100B2000BAB11068A04210D304F1080188423CBF5A
:100B30005068586007D35168101941601168091B4B
:100B4000016058601460101D70BD13465268002A81
:100B5000E7D121462846FFF791FF0028DED170BD7E
:100B60002DE9F041044616460D464769007B800793
:100B70002ED03846FFF747FE50BB3EB3012E02D0C1
:100B8000022E25D104E0204600F025F905441DE0A1
:100B90003846FFF746FEE168002841F01001E160A9
:100BA00005DA204600F058F80120BDE8F081C903BD
:100BB0000BD56268E16A914200D81146A2691144DE
:100BC0002269891A814200DD08460544002D01DAB8
:100BD0000220EAE7E16A6068E268814206D2910396
:100BE000E06203D522F4003141F01002A66900272B
:100BF000AE4213DCE16A814201D90B4600E00346B4
:100C000003EB060C2369ACEB030CAC4506DD81421B
:100C100001D98C4600E084469C4505D1A760276039
:100C200042F02000A5620DE0AD1BE669AE1B8142DB
:100C3000A66000D90846C01A281A206058196060BA
:100C400022F0200003490840E060002084F848704A
:100C5000ABE70000BFCFD7FFC16821F4001141F01E
:100C60008001C16000218160016070472DE9F0477B
:100C7000814614460E464FF0FF383248D568576912
:100C8000054209D03846A169FFF7C3FD002811DBF2
:100C90002C48C0430540E5602B463246494638465D
:100CA000FFF7A2FDA16920F00042B21A114400280A
:100CB000A16103D02046FFF7CFFF4046BDE8F08793
:100CC00070B504460569C06A6168884200D8084664
:100CD000E16821F42011E160C90312D5A84208D0CF
:100CE0002246411B2846FFF7C1FF10B14FF0FF30ED
:100CF00070BD0020E562C4E90150E06820F4803056
:100D0000E060002070BD10B50446C06820F02000EF
:100D1000E060A16AA06988420DD02046FFF7D0FFAD
:100D2000E06820F4405040F01000E060A06AA0614C
:100D30002069E062606044F24001E0688843E0605E
:100D400010BD000010000200002801D000F01CB807
:100D50007047000010B5014602A000F05DF80120C8
:100D600010BD000053494752545245443A20526541
:100D70006469726563743A2063616E2774206F70D2
:100D8000656E3A200000000001491820ABBEFEE766
:100D90002600020000210160C0E901107047102008
:100DA0007047034640688C46002818BF88423CBF05
:100DB00003464068F8D318681844884207D00CF1FD
:100DC000030020F00700001D411A521A0146081DB9
:100DD0000A60FFF751BD10B50146C268900703D005
:100DE000900607D5886A0AE000F03EF8012101600C
:100DF000881E10BD8B69486818440B69C01A91F8A9
:100E000048301BB191F84910401A10BD1103FCD5B0
:100E10000028FADD401E10BD70B505460C460A20BC
:100E200000E06D1C00F018F835B128780028F8D1E2
:100E300002E0641C00F010F814B120780028F8D10A
:100E4000BDE870400A2000F007B810B500F010F8B7
:100E5000BDE81040FFF778BF08B569468DF800007F
:100E60000320ABBE08BD0000004870470405002009
:100E700010B5012805D0002103A0FFF7CDFF012008
:100E800010BD09A1F8E7000053494752544D454DA4
:100E90003A204F7574206F662068656170206D651B
:100EA0006D6F7279000000003A2048656170206D16
:100EB000656D6F727920636F72727570746564000E
:100EC000FEE70000014800F091B800008003002018
:100ED000014800F08BB80000C403002030B590F842
:100EE00040500124AC40C56B6C600468636043688B
:100EF000102B036803D099600068C26030BD9A600F
:100F00000068C16030BD704772B6FEE710B590F85A
:100F100021100022022905D00421816380F82020BD
:100F2000012010BD01680B6823F00E030B600168FF
:100F30000B6823F001030B6090F84030C46B012173
:100F400001FA03F3636080F8211080F82020104636
:100F500010BD000010B590F821100024022903D024
:100F60000421816301243DE001680A6822F00E0239
:100F70000A6001680A6822F001020A601A4A0168E0
:100F8000914201D1012121E0174A1432914201D14D
:100F900010211BE0144A2832914201D1891515E035
:100FA000114A3C32914201D189140FE00E4A50326D
:100FB000914202D14FF4803108E00B4A64329142F1
:100FC00002D14FF4801101E04FF08071064A083AD7
:100FD0005160012180F82110002180F82010416B20
:100FE00001B18847204610BD080002402DE9F05F9E
:100FF000C16B0C6801680B68D0F840C0042202FA8B
:101000000CF2494DDFF824A1494E4A4FDFF828B1D0
:10101000DFF828E122422CD05A072AD50A68920626
:1010200003D40A6822F004020A600168A94201D1CF
:10103000042219E0514501D1402215E0B14202D10C
:101040004FF4806210E0B94202D14FF480420BE0CD
:10105000594502D14FF4802206E0714502D14FF488
:10106000800201E04FF080622F4908394A60C16A6E
:101070003BE04FF0020808FA0CF818EA040F4FF0B2
:1010800000094FF0010235D05FEA837832D50B6852
:101090009B0605D40B6823F00A030B6080F821201F
:1010A0000168A94201D1022219E0514501D1202253
:1010B00015E0B14202D14FF4007210E0B94202D102
:1010C0004FF400520BE0594502D14FF4003206E0D4
:1010D000714502D14FF4001201E04FF00072124945
:1010E00008394A6080F82090816A00291AD0BDE84A
:1010F000F05F0847082505FA0CF5254212D01B07BA
:1011000010D50B6823F00E030B6090F84010C36BF2
:1011100002FA01F15960826380F8212080F8209062
:10112000016BE2E7BDE8F09F080002401C000240AE
:101130003000024044000240580002406C0002406F
:1011400030B528B308C8134914221944B1FBF2F191
:101150008900C16310498163022141771A6843F60F
:10116000F0718A43D0E900142143D0E902452C43B1
:101170002143046921434469214384692143114384
:10118000196000214163012242770177084630BD92
:10119000012030BDF8FFFDBF0000024070B50446DD
:1011A00090F82000002501280CD0012084F82000B0
:1011B00094F821600020012E06D084F8200002253A
:1011C000284670BD022070BD022684F82160A0630D
:1011D0002068066826F0010606602046FFF77EFEBE
:1011E000E06A00282068016802D041F00E0106E0A4
:1011F00021F0040101602068016841F00A010160EA
:101200002068016841F001010160D9E770B504462A
:1012100000F0FEF80546601C02D004480078044443
:1012200000F0F6F8401BA042FAD370BD1400002075
:101230002DE9F84FDFF8B8910024A9F1040B2346FB
:101240000F2709F1040AABF1040EC9E00125A540FE
:101250002A40AA427DD1674ED1F804C0ACEB060803
:10126000B44532D014DCBCF1030F3AD009DCBCF138
:10127000000F2AD0BCF1010F1CD0BCF1020F31D1FC
:101280001DE0BCF1110F17D0BCF1120F2AD119E0EB
:10129000B8F5881F19D006DCB8F5803F15D0B8F531
:1012A000801F1FD111E0B8F5001F0ED0B8F5041F44
:1012B00018D10AE0CB6815E0CB681B1D12E0CB68A3
:1012C00008330FE0CB680C330CE08B682BB1012B9B
:1012D0004FF0080303D0456104E0042302E00561F8
:1012E00000E00023FF2A01D8064601E000F10406D1
:1012F0004FEA840501D9A5F12005D6F8008007FA48
:1013000005FC28EA0C0803FA05F548EA0508C6F8C2
:1013100000804D68ED0062D5374DAE6946F001069C
:10132000AE61AD6924F0030605F001050095334D6B
:1013300006EB050CDCF80850A607360F07FA06F88E
:1013400025EA0805DFF8B880404503D14FF00008D2
:1013500017E044E0DFF8AC80404502D14FF00108CF
:101360000FE0DFF8A480404502D14FF0020808E00A
:10137000DFF89880404502D14FF0030801E04FF0BC
:10138000040808FA06F848EA0508CCF808804D6811
:10139000D9F80060ED024D4601D5164300E09643B2
:1013A0002E604D68DAF80060AD02554601D516434F
:1013B00000E096432E604D68DBF80060AD035D46AB
:1013C00001D5164300E096432E604D68DEF80060BC
:1013D000ED03754601D5164300E096432E60641C6C
:1013E0000D682A46E5407FF431AFBDE8F88F000074
:1013F00008040140000011100010024000000140EC
:1014000000080140000C01400010014000140140A0
:10141000014880687047000014000020024881687D
:10142000027811448160704714000020074810B50D
:10143000016841F010010160032000F06FF8032003
:1014400000F006F800F024F8002010BD0020024053
:1014500070B50D4D04464FF47A712878B1FBF0F069
:101460000A490968B1FBF0F000F0D6FA48B9102C2F
:1014700007D200222146501E00F030F800206C6098
:1014800070BD012070BD000014000020200000206D
:101490000A4882B0816941F001018161816901F0EE
:1014A00001010091C16941F08051C161C06900F042
:1014B00080500090052002B000F030B800100240CB
:1014C000002809DB00F01F02012191404009800043
:1014D00000F1E020C0F8001170470000F0B40E4B9E
:1014E0001B680C46C3F30223C3F10705042D00D982
:1014F0000425191D072901D2002300E0DB1E012667
:1015000006FA05F1491E214099409E40761E16407C
:101510003143F0BC01F051BB0CED00E0064900F096
:10152000070208684FF6FF03184040EA0220034A0A
:1015300010430860704700000CED00E00000FA0561
:101540002DE9F0470F46050061D0434E306800F0AA
:101550000700B84209D2306820F0070038433060F5
:10156000306800F00700B84251D128683B4C810731
:1015700012D5400703D5606840F4E06060602878C9
:10158000000703D5606840F4605060606068A96837
:1015900020F0F000084360602878C00728D0686811
:1015A000012810D02168022810D0890700292EDADE
:1015B000616821F0030101436160FFF729FF804664
:1015C00041F288390DE021688903EFE78901EDE7F1
:1015D000FFF71EFFA0EB0801494502D90320BDE833
:1015E000F0876068696800F00C00B0EB810FEFD104
:1015F000306800F00700B8420BD9306820F00700CF
:1016000038433060306800F00700B84201D0012054
:10161000E5E72878400705D56068E96820F4E060D0
:10162000084360602878000706D56068296920F4BF
:10163000605040EAC100606000F038F86168084A14
:10164000C1F30311515CC8400649086006480068B0
:10165000FFF7FEFE0020C2E700200240001002401B
:10166000DA2C00082000002018000020044805495A
:1016700000684968044AC1F30221515CC8407047C0
:101680002000002000100240EA2C00080448054910
:1016900000684968044AC1F3C221515CC8407047E0
:1016A0002000002000100240EA2C00080E4A516879
:1016B0000E4801F00C03042B11D0082B0FD10C485D
:1016C000C1F38343C903C05C0AD55168084AC1F31A
:1016D0004041921E515C054A5043B0FBF1F0704707
:1016E00004494843704700000010024000127A008D
:1016F000CA2C000800093D002DE9F84F040070D005
:101700002078C04DC00749D06868C0F38100012827
:1017100007D06868C0F38100022809D16868C00357
:1017200006D52868800339D560680028E7D035E001
:101730006068B0F5803F0BD010B1B0F5A02F11D08C
:10174000286820F480302860286820F4802002E097
:10175000286840F480302860606890B1FFF758FE38
:1017600006460AE0286840F480202860F0E700BFC1
:10177000FFF74EFE801B642873D828688003F7D5D6
:101780000CE0FFF745FE064605E000BFFFF740FE10
:10179000801B6428F0D828688003F7D420789A4EFC
:1017A00080074FF001094FF0000839D5686810F044
:1017B0000C0F07D06868C0F38100022809D168685F
:1017C000C00306D42868800714D52069012808D1F1
:1017D00010E02069B0B1C6F80090FFF719FE074687
:1017E00005E00AE1FFF714FEC01B0228C4D82868F0
:1017F0008007F7D52868616920F0F80040EAC10049
:1018000028600DE0C6F80080FFF702FE074604E0FE
:10181000FFF7FEFDC01B022823D828688007F7D4F5
:10182000207800072CD57948A169D9B1C0F800907B
:10183000FFF7EEFD074604E0FFF7EAFDC01B0228B4
:101840000FD8686A8007F7D571484FF4FA510068DD
:10185000B0FBF1F0009000BF0098411E0091FAD259
:101860000EE080E0C0F80080FFF7D2FD074604E0FC
:10187000FFF7CEFDC01B022875D8686A8007F7D431
:101880002078400760D5E8690027C00008D4E869DF
:1018900040F08050E861E869012700F08050009036
:1018A0005C480168C90513D40168834641F480711E
:1018B0000160FFF7ADFD824606E000BFFFF7A8FD1F
:1018C000A0EB0A0064284ED8DBF80000C005F5D56F
:1018D000E06801280AD008B1052813D0286A20F052
:1018E00001002862286A20F0040002E0286A40F023
:1018F00001002862E06841F2883B98B1FFF788FD5B
:1019000082460BE0286A40F004002862EEE700BF40
:10191000FFF77EFDA0EB0A0159455AD8286A8007D7
:10192000F6D50CE0FFF774FD824605E0FFF770FD89
:10193000A0EB0A0159454CD8286A8007F6D41FB19C
:10194000E86920F08050E861E06988B36968C1F314
:101950008101022944D00228C6F8608004D0FFF734
:1019600057FD044638E034E0FFF752FD074604E037
:10197000FFF74EFDC01B02282BD828688001F7D442
:10198000206AB0F5803F05D16868A16820F4003076
:1019900008436860D4E908010843696821F47411B8
:1019A00008436860C6F86090FFF732FD044606E021
:1019B00025E000BFFFF72CFD001B022809D828688E
:1019C0008001F7D51BE000BFFFF722FD001B0228B6
:1019D00002D90320BDE8F88F28688001F4D40EE016
:1019E0000128F7D06868226A00F48031914204D15E
:1019F000616A00F47010884201D00120EAE70020FB
:101A0000E8E7000000100240000042428004424229
:101A1000200000200070004010B5401EB0F1807F13
:101A200001D3012010BD4FF0E02460610F21601749
:101A300001F0C3F80020A06107202061002010BD44
:101A40007047704770B590F83C20012A26D00124D9
:101A500080F83C40022280F83D2003685A689D6867
:101A600022F070060A6832435A600D4B02689A42AF
:101A700008D0B2F1804F05D00A4B9A4202D00A4BEF
:101A80009A4204D1496825F080031943916080F897
:101A90003D40002180F83C10084670BD022070BD1A
:101AA000002C0140000400400008004010B5040074
:101AB00003D094F83D0010B107E0012010BD0020D4
:101AC00084F83C00204600F01FF8022084F83D0016
:101AD000211D206800F0C2FD012084F8460084F832
:101AE0003E0084F83F0084F8400084F8410084F808
:101AF000420084F8430084F8440084F8450084F8E8
:101B00003D00002010BD000008B50068B0F1804F16
:101B100012D10A48C16941F00101C161C0690222C4
:101B200000F00100009003211C20FFF7D7FCBDE866
:101B300008401C20FFF7C4BC08BD00000010024094
:101B400090F83D10012901D001207047022180F852
:101B50003D100168CA6842F00102CA6000680B4982
:101B6000884208D0B0F1804F05D00949884202D0A0
:101B70000849884204D1816801F00701062903D091
:101B8000016841F00101016000207047002C014014
:101B9000000400400008004070B5044690F83C0086
:101BA0000025012817D0012684F83C60022084F823
:101BB0003D002068826822F0770222F47F42826032
:101BC0000868502838D00DDC20284FD005DC90B3B1
:101BD000102811D14AE0022070BD302846D040289C
:101BE0000AD13BE060282FD070280DD0B0F5805F7F
:101BF00003D0B0F5005F12D0012584F83D600020CD
:101C000084F83C00284670BDCB68D1E901212068EA
:101C100000F05AFD2068816841F0770109E0CB6847
:101C2000D1E90121206800F04FFD2068816841F46E
:101C300080418160E1E719E0CA684968206800F0E6
:101C400055FD5021206806E0CA684968206800F008
:101C50005EFD6021206800F041FDCEE7CA6849685A
:101C6000206800F043FD40212068F4E72268014627
:101C70001046F0E7704770B50446006801694FF000
:101C80000005C943890715D4C168C943890711D420
:101C9000E91E0161012020772068806980072046C5
:101CA00002D0FFF7E7FF04E000F098F8204600F0CC
:101CB00096F8257720680169C943490717D4C16898
:101CC000C943490713D46FF0040101610220207752
:101CD0002068806910F4407F204602D0FFF7CAFFD9
:101CE00004E000F07BF8204600F079F825772068C2
:101CF0000169C943090716D4C168C943090712D449
:101D00006FF008010161042020772068C069800716
:101D1000204602D0FFF7AEFF04E000F05FF8204657
:101D200000F05DF8257720680169C943C90617D41A
:101D3000C168C943C90613D46FF0100101610820BE
:101D400020772068C06910F4407F204602D0FFF75A
:101D500091FF04E000F042F8204600F040F82577BB
:101D600020680169C943C90708D1C168C943C907C7
:101D700004D1891E0161204600F032F82068016913
:101D8000C943090609D4C168C943090605D46FF0DF
:101D9000800101612046FFF753FE20680169C943B5
:101DA000490609D4C168C943490605D46FF040010A
:101DB0000161204600F034F820680169C9438906B2
:101DC0000BD4C168C943890607D46FF020010161B3
:101DD0002046BDE87040FFF734BE70BD70477047C5
:101DE00010B5084988420BD1074C08A06168491C0E
:101DF0006160FEF7FBF96068792801D3002060601C
:101E000010BD0000A8020020000000205379737468
:101E1000656D54696D65723D25640D0A0000000012
:101E200070477047704710F8411F4078084370476B
:101E3000F8B5016804460868CA684B6910F00F0FCE
:101E40004FF000055AD003F0010602F490773743B3
:101E500065D0C10705D0D10503D5616C41F0010102
:101E60006164410705D5D90703D0616C41F00201D7
:101E70006164810705D5D90703D0616C41F0040185
:101E80006164010707D502F02001314303D0616C82
:101E900041F008016164616C00293BD0800604D5E3
:101EA000900602D5204600F01EFD20684069616C56
:101EB000C0F3801001F00801014320462BD000F050
:101EC000DDFC20684069400621D52068143050E8C8
:101ED000001F21F0400140E80012002AF5D1E06B1C
:101EE000A8B16D494163E06BFFF734F8002811D0C9
:101EF000E06B416B01B0BDE8F040084783060ED5AA
:101F000093060CD52046BDE8F84000F0ECBC204616
:101F1000FFF788FFF8BDFFF785FF6564F8BD266B06
:101F20002023012E7CD1C6067AD5D60678D508683E
:101F30004868009048694FF00206400640D5E16BC2
:101F4000086840680004000CE8D0A28D8242E5D900
:101F5000E085886920282DD020680C3050E8001FCB
:101F600021F4807140E80012002AF5D12168143173
:101F700051E8000F20F0010041E80002002AF5D1ED
:101F80002068143050E8001F21F0400140E80012A2
:101F9000002AF5D184F84230256320680C3050E8DF
:101FA000001F21F0100140E80012002AF5D1E06B7B
:101FB000FEF7ACFF6663A08DE18D401A81B22AE086
:101FC000A08DE18D401A81B2E08D0028A6D00029B5
:101FD000A4D022680C3252E8000F20F4907042E83E
:101FE0000007002FF5D12068143050E8002F22F0B0
:101FF000010240E80027002FF5D184F84230256324
:1020000020680C3050E8002F22F0100240E8002336
:10201000002BF5D166632046FFF703FFF8BDFFE70D
:1020200005062BD5150629D594F841002128F5D1B0
:10203000A068B0F5805F01D12069B0B1206A411C71
:102040002162216800784860E08C401E0004000C8A
:10205000E084E3D12068C16821F08001C16020687C
:10206000C16841F04001C160D8E7206A0088C0F330
:1020700008004860206A801C2062E5E74006CDD554
:102080005006CBD5CA68204622F04002CA6084F8C8
:10209000413000F003FAC1E73327000870B50400AF
:1020A00004D094F84100002510B106E0012070BD75
:1020B00084F84050204600F023F8242084F84100A2
:1020C0002068C16821F40051C160204600F06CFC1A
:1020D0002068016921F4904101612068416921F083
:1020E0002A0141612068C16841F40051C160656402
:1020F000202084F8410084F842006563002070BD10
:10210000F0B585B00024009401940294039406462F
:10211000414F0368414802210322414DBB4226D171
:10212000836943F480438361836903F480430493A8
:10213000836943F0040383618069039200F0040023
:1021400004900802CDE9000169462846FFF770F8BF
:102150002815CDE90004694628460294FFF768F87F
:10216000022201212520FFF7B9F9252050E02D4F4B
:10217000BB424FD1C36943F40033C361C36903F465
:1021800000330493836943F00403836180690392FD
:1021900000F0040004900420CDE9000169462846BF
:1021A000FFF746F80820CDE9000469462846029466
:1021B000FFF73EF81D4D1C488027C5E90004C5E91E
:1021C00002472C616C61AC612846EC61FEF7B8FFF8
:1021D00008B1FEF799FEF5636E62144D124844355E
:1021E000143001C5102091C5104845F810494430FD
:1021F0006C61AC61EC61FEF7A3FF08B1FEF784FEF1
:10220000B5630322012126206E62FFF767F92620BD
:10221000FFF756F905B0F0BD00380140001002404C
:1022200000080140004400406C0002408003002090
:1022300090F84230202B01D00220704721B11AB112
:102240000023036300F00CBC0120704790F842307B
:10225000202B01D00220704721B11AB10023036363
:1022600000F046BC012070472DE9FF41054600689B
:102270003549364C88423ED135A300260FCB8DE838
:102280000F0020784FF480784FF6FF77FF280ED3A9
:10229000267041463248FEF7DFF86846FEF778F8C8
:1022A00082B23B4669462F4800F06FF81DE02C498A
:1022B00062780A54401CC2B28818227010F8011CBF
:1022C0000A2912D110F8020C0D280ED13B462449E0
:1022D000244800F05AF82348FFF7A5FD2128FAD03A
:1022E000267041461E48FEF7B7F818490122491CDE
:1022F0001C48FFF7ABFF1C492868884221D11B4EC0
:1023000000251BA0715DFDF771FF6D1C0F2DF8D32B
:102310000F221649A068FEF75AF8A16815A00F31E0
:10232000A160FDF763FF2169A068884201D11448CC
:10233000A06004B00F22BDE8F0410C491148FFF73E
:1023400077BFBDE8FF810000003801400000002099
:1023500064697374616E63655F73617A6500000020
:1023600030000020F0020020004400403001002036
:102370002563000049206E3D307825780D0A000065
:10238000300200203803002070472DE9F84304464E
:1023900090F841001F4616460D46202802D0022024
:1023A000BDE8F8837DB176B100206064212084F817
:1023B0004100FFF72DF8A6848046E684A068B0F5BA
:1023C000805F02D003E00120EAE7206910B12E46C9
:1023D00000250EE000260CE08021204600F0A3FB43
:1023E000A0B9AEB116F8010B21684860E08C401E20
:1023F000E084E08C43464FF0000200970028EBD1C8
:102400004FF04001204600F08EFB30B10320C7E7BB
:1024100035F8020BC0F30800E6E7202084F84100FD
:102420000020BDE770B5044690F84100202801D097
:10243000022070BD49B342B32162A284E28400202D
:102440006064212384F84130A56B114BAB62A56B0E
:10245000104BEB62A56B104B2B63A36B5863256885
:1024600013462A1DA06BFEF799FE21686FF040000D
:1024700008602068143050E8001F41F0800140E8F7
:102480000012002AF5D1002070BD012070BD0000AF
:102490003128000873280008432700087047704758
:1024A000FEE700000D4808B5416941F001014161B6
:1024B0004069012200F00100009011461020FFF752
:1024C0000DF81020FEF7FCFF002201211120FFF77C
:1024D00005F8BDE808401120FEF7F2BF00100240E9
:1024E000094808B5816941F020018161816901F0E5
:1024F00020010091816941F004018161806900F04F
:102500000400009008BD00000010024010B586B025
:1025100000241748009401940294039404944FF00B
:1025200080410594016041F61F41C0E9011442F267
:102530000F71C0E903148461FFF7B8FA08B1FEF720
:10254000E3FC4FF48050009069460948FFF724FBF4
:1025500008B1FEF7D9FC049404A905480594FFF7D7
:1025600071FA002801D0FEF7CFFC06B010BD0000C4
:10257000A80200200C4810B50A4901604FF4E1316F
:102580004160002181600C22C160C0E904128161B8
:10259000C161FFF783FD002803D0BDE81040FEF7BE
:1025A000B3BC10BD00380140F00200200C4810B54B
:1025B0000A4901604FF416414160002181600C22FC
:1025C000C160C0E904128161C161FFF767FD0028A5
:1025D00003D0BDE81040FEF797BC10BD004400409A
:1025E00038030020FEE7FEE770477047FEF716BF8E
:1025F00030B58FB028216846FDF750FF14210AA896
:10260000FDF74CFF01210804CDE9001000240294DD
:1026100002250491CDE907504FF4E0100990684677
:10262000FFF76AF808B172B6FEE70F20CDE90A0598
:102630004FF48060CDE90C4002210AA80E94FEF709
:102640007FFF002801D072B6FEE70FB030BD7047A3
:102650000148FFF710BB0000A8020020F0B5026897
:10266000164B174C174D4FF08047984205D0B84293
:1026700003D0A04201D0A84203D122F070064A68DC
:102680003243984205D0B84203D0A04201D0A842BC
:1026900003D122F44074CA6822434C6922F08002BC
:1026A000224302608A68C2620A688262984201D14B
:1026B0000969016301214161F0BD0000002C014066
:1026C000000400400008004010B5846842EA03227C
:1026D00024F47F440A432243826010BD826822F0C2
:1026E00070020A4342F007018160704710B5036A27
:1026F000046A24F001040462846924F0F00444EACA
:10270000021423F00A020A438461026210BD10B56C
:10271000036A046A24F010040462846923F0A003AD
:1027200024F4704444EA023243EA011182610162F6
:1027300010BD10B5406A0021C185C184FFF772FB4E
:1027400010BD70B5446A2068406994F84110C0F328
:10275000C0100025212904D118B1E584204600F0DD
:10276000B4F82068406994F84210C0F38010222920
:1027700004D118B1E585204600F080F8606C40F087
:10278000100060642046FFF74DFB70BD10B5014698
:10279000406A096809684FF0000289062ED4C28594
:1027A00001680C3151E8003F23F4807341E80034A4
:1027B000002CF5D10168143151E8003F23F00103EA
:1027C00041E80034002CF5D10168143151E8003F94
:1027D00023F0400341E80034002CF5D1202180F89B
:1027E0004210016B012909D101680C3151E8003F09
:1027F00023F0100341E80034002CF5D14263016B53
:10280000012902D0FFF730FD10BD818DFFF709FBD4
:1028100010BD10B5406A01214163016B012902D04E
:10282000FFF7B2FD10BD818D4908FFF7FAFA10BD20
:1028300010B50146406A09680968890616D4002166
:10284000C1840168143151E8002F22F0800241E870
:102850000023002BF5D101680C3151E8002F42F024
:10286000400241E80023002BF5D110BDFFF716FE12
:1028700010BD10B5406AFFF712FE10BD01680C31A3
:1028800051E8002F22F4907241E80023002BF5D18B
:102890000168143151E8002F22F0010241E80023C1
:1028A000002BF5D1016B012909D101680C3151E8E8
:1028B000002F22F0100241E80023002BF5D1202147
:1028C00080F8421000210163704701680C3151E823
:1028D000002F22F0C00241E80023002BF5D1202177
:1028E00080F84110704708B590F84210222901D0B5
:1028F000022008BD82684FF480539A4201D10169D9
:1029000021B1816A9A421BD04AB10AE00268816A09
:102910005268C2F308020A80816A891C08E00269D1
:1029200072B10268526802F07F020A70816A491C23
:102930008162C18D491E0904090CC18503D01BE0C9
:1029400002685268F1E70168CA6822F02002CA6092
:102950000168CA6822F48072CA6001684A6922F07C
:1029600001024A61202180F8421000214163026B7C
:10297000012A03D0FFF778FC002008BD016301683D
:102980000C3151E8002F22F0100241E80023002B07
:10299000F5D101680A68D20602D50A684968009133
:1029A000818DFFF73EFAE7E770B5044600680169DC
:1029B000E26821F44051114301612169A068084394
:1029C000616908432168CA6841F20C639A43024373
:1029D000CA6020684169A26921F4407111434161D4
:1029E0001E492068884202D1FEF750FE01E0FEF742
:1029F0003DFE00EBC00101EB001260686421800025
:102A0000B2FBF0F3B3FBF1F36FF018067343B2FBC4
:102A1000F0F5B2FBF0F605EB8305322303EB051569
:102A2000B5FBF1F5B6FBF1F605F0F00505EB061583
:102A3000B2FBF0F6B2FBF0F0B0FBF1F06FF0180271
:102A4000504306EB800003EB0010B0FBF1F021686F
:102A500000F00F002844886070BD0000003801407D
:102A600038B58162044682850020134660642222C4
:102A700084F84220E56B1B4AAA62E56B1A4AEA62B7
:102A8000E56B1A4A2A63E26B50630A462168E06BE1
:102A9000091DFEF783FB20680168406800902069EB
:102AA00048B120680C3050E8001F41F4807140E8C4
:102AB0000012002AF5D12068143050E8001F41F0C0
:102AC000010140E80012002AF5D12068143050E8D6
:102AD000001F41F0400140E80012002AF5D100201B
:102AE00038BD00008D270008132800084327000880
:102AF00081628285C28500214164222180F84210D2
:102B0000016921B10168CA6842F48072CA60016833
:102B10004A6942F001024A610068C16841F020013F
:102B2000C160002070472DE9F041984617460E46D7
:102B30000446069D27E0681C25D02DB1FEF768FCF1
:102B4000A0EB0800A8421ED920680C3050E8001FF6
:102B500021F4D07140E80012002AF5D12068143029
:102B600050E8001F21F0010140E80012002AF5D1D1
:102B7000202084F8410084F84200002084F84000BE
:102B80000320BDE8F0812068006836EA000004D028
:102B90000020B842CFD00020F3E70120F9E7000081
:102BA0000148FFF745B90000F00200200148FFF797
:102BB0003FB9000038030020FEE70907090E00288E
:102BC00004DB00F1E02080F80014704700F00F00F3
:102BD00000F1E02080F8141D7047000013B54FF697
:102BE000FF73012269460248FFF7CFFB00981CBD26
:102BF000F0020020FEF71AFCFFF7FAFCFFF770FC6A
:102C0000FFF750FCFFF782FCFFF7B4FCFFF7CEFCA8
:102C10001D48FEF795FFC820FEF7F8FA1B4E1C4C26
:102C200006F169003146A660C4E9036019A0FDF70A
:102C3000DDFA03221AA11C48FFF7F4FBC820FEF7B7
:102C4000E5FA0F22A6F580711748FFF7F1FA00BFE9
:102C5000D4E902018842FBD014A0FDF7C7FAE1686D
:102C600015A00F31E160FDF7C1FA0025E068415D74
:102C700014A0FDF7BBFA6D1C0F2DF7D3D4E90301A7
:102C80008842E5D1E660E3E7A80200203002002098
:102C900000000020492D6E3D3078257800000000AE
:102CA0006941434D0000000038030020CAFDBEDD2D
:102CB000BDE2CEF60D0A00004F75743D30782578E0
:102CC0000D0A000025782000010202030405060712
:102CD00008090A0B0C0D0E0F101000000000000078
:102CE00000000102030406070809000000000102B9
:102CF00003043031323334353637383941424344B6
:102D00004546403058003031323334353637383963
:102D1000616263646566403078003A7474003A74A6
:102D200074003A7474000000482D00080000002070
:102D30003000000028010008782D00083000002035
:102D4000380B0000440100080000000000000000F3
:102D50000000000000000000000000000100000072
:102D600010000000000000000024F400000000003B
:082D700000000000000000005B
:04000005080000ED02
:00000001FF
